:020000040800F2
:1000000078120020910500087D0200087F02000898
:100010008B02000897020008A302000800000000FD
:10002000000000000000000000000000AF02000817
:10003000B102000800000000A7050008B302000894
:10004000AB050008AB050008AB050008B7020008C7
:10005000AB050008AB050008B5020008AB050008B9
:10006000AB050008AB050008AB050008AB050008B0
:10007000AB050008AB050008AB050008AB050008A0
:10008000AB050008AB050008AB050008AB05000890
:10009000AB050008AB050008AB050008AB05000880
:1000A000AB050008AB050008AB050008AB05000870
:1000B000AB050008AB050008AB050008AB05000860
:1000C000AB050008AB050008AB050008AB05000850
:1000D000AB050008472A0008B75D0008FF3100089B
:1000E0002B2B0008AB050008AB05000800F002F858
:1000F00000F0B4F80AA090E8000C82448344AAF10E
:100100000107DA4501D100F0A9F8AFF2090EBAE80B
:100110000F0013F0010F18BFFB1A43F0010318473B
:1001200000C6000020C600000A444FF0000C10F882
:10013000013B13F0070408BF10F8014B1D1108BF65
:1001400010F8015B641E05D010F8016B641E01F805
:10015000016BF9D113F0080F1EBF10F8014BAD1C55
:100160000C1B09D16D1E58BF01F801CBFAD505E073
:1001700014F8016B01F8016B6D1EF9D59142D6D3CD
:10018000704700000023002400250026103A28BFF5
:1001900078C1FBD8520728BF30C148BF0B607047F9
:1001A0006E2908F09B84702908F0398066290BF0CD
:1001B000888465290BF0858467290BF08284612986
:1001C000AFF3008003681B0A28BF41F08001692952
:1001D00007F0AA87642907F0A787752907F0A48785
:1001E0006F2908F09887782908F00580E92908F038
:1001F0003387E42908F03087F52908F02D87EF29A7
:1002000008F09587F82908F004800368DB0928BF07
:1002100041F08001632908F0B486732908F0B9869B
:10022000E32909F09180F32909F0968000207047B6
:100230001FB59DE8030008F0A5FB08F0CBFF040004
:10024000002000210AF07CFD401C6060002000219D
:100250000AF08CFDE0601FBD10B510BD09F0D4FAA6
:100260001146FFF7E5FF03F0C9F909F0F2FA03B40C
:10027000FFF7F2FF03BC09F063FB000070470EA11B
:100280001C4802F0BCFB00BFFEE71BA1194802F0AE
:10029000B6FB00BFFEE727A1164802F0B0FB00BF87
:1002A000FEE733A1134802F0AAFB00BFFEE7704748
:1002B00070477047704770470D0A2A2A2A2A2A2A4F
:1002C0002A2A2A2A2A2A2A2A2A2A2A2A2A486172F1
:1002D000644661756C745F48616E646C65722A2A4D
:1002E0002A2A2A2A2A2A2A2A2A2A2A2A2A2A2A2A6E
:1002F0002A0D0A00003801400D0A2A2A2A2A2A2A31
:100300002A2A2A2A2A2A2A2A2A2A2A2A2A4D656DAC
:100310004D616E6167655F48616E646C65722A2A23
:100320002A2A2A2A2A2A2A2A2A2A2A2A2A2A2A2A2D
:100330002A0D0A000D0A2A2A2A2A2A2A2A2A2A2AC1
:100340002A2A2A2A2A2A2A2A2A4275734661756C81
:10035000745F48616E646C65722A2A2A2A2A2A2AE6
:100360002A2A2A2A2A2A2A2A2A2A2A2A0D0A00007E
:100370000D0A2A2A2A2A2A2A2A2A2A2A2A2A2A2A1A
:100380002A2A2A2A2A55736167654661756C745F4B
:1003900048616E646C65722A2A2A2A2A2A2A2A2A25
:1003A0002A2A2A2A2A2A2A2A2A2A0D0A0000000092
:1003B0000CB50020019000906C48006840F480303B
:1003C0006A49086000BF6948006800F40030009086
:1003D0000198401C0190009818B90198B0F5A06FE1
:1003E000F1D16248006800F4003010B101200090A3
:1003F00001E0002000900098012843D15C4800688B
:1004000040F010005A4908600846006820F00300D8
:1004100008600846006840F00200086053484068E1
:10042000524948600846406848600846406840F4C1
:10043000806048600846406820F47C1048600846A8
:10044000406840F4E81048600846006840F080705A
:10045000086000BF4548006800F000700028F9D02F
:100460004248406820F00300404948600846406820
:1004700040F00200486000BF3C48406800F00C00BB
:100480000828F9D10CBD10B5FFF792FF10BD10B5CB
:100490003648006840F0010034490860084640686A
:1004A00034490840314948600846006832490840EC
:1004B0002E4908600846006820F48020086008463D
:1004C000406820F4FE0048604FF41F008860FFF78A
:1004D000DAFF4FF000602949086010BD10B5002117
:1004E00000200022214B5B6803F00C0121B104299C
:1004F00006D0082928D107E0214B224C236027E0B1
:100500001F4B204C236023E0184B5B6803F47010F2
:10051000164B5B6803F48032022303EB904022B950
:10052000194B4343174C23600DE0104B5B6803F4F9
:10053000003323B1144B4343124C236003E0104BB0
:100540004343104C236003E00D4B0E4C236000BF6F
:1005500000BF064B5B68C3F303130C4CE15C094B13
:100560001B68CB40074C236010BD00000010024008
:10057000002002400000FFF8FFFFF6FE08ED00E05B
:1005800000127A000000002000093D000400002055
:100590000948804709480047FEE7FEE7FEE7FEE717
:1005A000FEE7FEE7FEE7FEE7FEE7FEE70448054953
:1005B000054A064B704700008F040008ED00000854
:1005C0007808002078120020780A0020780A00209D
:1005D00031490143314A1160704770B50021002351
:1005E0000F22C47804B32D4C246804F4E064C4F5ED
:1005F000E064210AC1F10403CA40447804FA03F11B
:100600008478144021430901254C0678A1550478CB
:1006100004F01F050124AC4005786D11AD0005F113
:10062000E025C5F8004109E0047804F01F05012425
:10063000AC401C4D0678761145F8264070BD1A4A2C
:100640000A400243154B1B1F1A60704739B1134A09
:10065000121D12680243114B1B1D1A6006E00F4A5F
:10066000121D126882430D4B1B1D1A60704704282F
:1006700008D14FF0E021096941F004014FF0E02278
:10068000116107E04FF0E021096921F004014FF00A
:10069000E0221161704700000000FA050CED00E057
:1006A00000E400E080E100E080FFFF1F10B5044699
:1006B000CC48844208D10121042000F02DFB002108
:1006C000042000F029FB46E0C748844208D10121FC
:1006D000082000F021FB0021082000F01DFB3AE07B
:1006E000C248844208D10121102000F015FB0021EE
:1006F000102000F011FB2EE0BD48844208D10121FA
:10070000202000F009FB0021202000F005FB22E062
:10071000B848844208D10121402000F0FDFA0021B0
:10072000402000F0F9FA16E0B348844208D10121D4
:10073000802000F0F1FA0021802000F0EDFA0AE0BC
:10074000AE48844207D10121801500F0E5FA00216E
:10075000A01500F0E1FA10BD10B50121084600F027
:10076000DBFA0021012000F0D7FA10BD2DE9F0419D
:10077000024600250026002000230024002791F8CF
:1007800003C00CF00F0591F803C00CF0100CBCF185
:10079000000F03D091F802C04CEA050591F800C0A3
:1007A000BCF1000F31D0146800202BE04FF0010C99
:1007B0000CFA00F3B1F800C00CEA03069E4220D107
:1007C00083004FF00F0C0CFA03F7BC4305FA03FC4F
:1007D0004CEA040491F803C0BCF1280F06D14FF095
:1007E000010C0CFA00FCC2F814C00AE091F803C036
:1007F000BCF1480F05D14FF0010C0CFA00FCC2F817
:1008000010C0401C0828D1D31460B1F800C0BCF15E
:10081000FF0F34DD546800202EE000F1080C4FF08B
:10082000010808FA0CF3B1F800C00CEA03069E4276
:1008300021D183004FF00F0C0CFA03F7BC4305FAEB
:1008400003FC4CEA040491F803C0BCF1280F05D165
:1008500000F1080C08FA0CF8C2F8148091F803C0F3
:10086000BCF1480F07D100F1080C4FF0010808FA5D
:100870000CF8C2F81080401C0828CED35460BDE8A4
:10088000F0814FF6FF710180022181700421C17057
:1008900070470246002093680B400BB1012000E036
:1008A000002070470146886880B2704702460020E9
:1008B000D3680B400BB1012000E0002070470146D7
:1008C000C86880B2704701617047416170470AB1E2
:1008D000016100E041617047C16070474FF48032B0
:1008E0000A4382618161826182698269704702463E
:1008F0000020434B18684FF68073184040EA0210FE
:1009000008433F4B186070473E49C8617047F0B5D7
:100910000A46002300240021002500F00046B6F11D
:10092000004F02D1364EF16901E0354E7168C0F3D7
:10093000034583B200F44016B6F5401F08D121F0FC
:1009400070612F4E766826F070662D4F7E6012E043
:1009500000F48016B6F5801F06D1032606FA05F4CA
:10096000A14341F0706106E0460D360103FA06F638
:10097000B14341F0706122B1460D360103FA06F62B
:10098000314300F00046B6F1004F02D11C4EF16138
:1009900001E01B4E7160F0BD30B500228B071C0FCB
:1009A0000F2303FA04F2164B08338C1053F824304B
:1009B0009343134C08348D1044F8253023468C1093
:1009C00053F824308C07240F00FA04F423430C4C12
:1009D00008348D1044F8253030BD0A49DC310860F8
:1009E0007047000000080140000C01400010014069
:1009F0000014014000180140001C0140002001408B
:100A00000000014000002042DF48006840F0010083
:100A1000DD49086008464068DC490840DA4948601A
:100A200008460068DA490840D74908600846006867
:100A300020F4802008600846406820F4FE004860EA
:100A40004FF41F0088607047CF49096821F4803156
:100A5000CD4A11601146096821F480211160B0F57A
:100A6000803F03D0B0F5802F0ED106E0C64909685B
:100A700041F48031C44A116007E0C349096841F478
:100A8000A021C14A116000E000BF00BF704710B54F
:100A900001460022002300204A11012A02D1BA4C4B
:100AA000236806E0022A02D1B74C236A01E0B64C63
:100AB000636A01F01F02012494401C400CB1012024
:100AC00000E0002010BD38B5002000900024002573
:100AD00000BF3120FFF7DBFF05460098401C009067
:100AE0000098B0F5A06F01D0002DF2D03120FFF7B3
:100AF000CEFF08B1012400E00024204638BD0146A5
:100B00000020A14A106820F0F80040EAC1001060FF
:100B10007047A04908607047024600209A4B586809
:100B200020F47C1042EA01031843974B5860704749
:100B300098490866704701460020934A506820F0A3
:100B400003000843506070478F48406800F00C0075
:100B50007047014600208C4A506820F0F00008439E
:100B60005060704701460020874A506820F4E060DA
:100B700008435060704701460020834A506820F4C3
:100B8000605040EAC1005060704729B17E4A527AF5
:100B900002437D4B5A7204E07B4A527A82437A4B7D
:100BA0005A7270477B49D83108607047014600206F
:100BB000754A506820F44040084350607047002157
:100BC000714A20321170704A82F82010012802D038
:100BD00004280AD104E001216B4A2032117005E09B
:100BE0000521694A2032117000E000BF00BF704744
:100BF0006949086070476449096A0143624A1162A1
:100C00007047654944390860704730B500210022BB
:100C1000002400235C4D6D6805F00C0121B104290E
:100C200005D0082923D105E05C4D056022E05B4D2D
:100C300005601FE0544D6D6805F47012524D6D68EB
:100C400005F48034022505EB92421CB9544D5543FE
:100C500005600BE04C4D6D6805F400351DB1504D3D
:100C60005543056002E04D4D5543056002E04B4D94
:100C7000056000BF00BF444D6D6805F0F001090933
:100C8000484D6B5C0568DD4045603F4D6D6805F47F
:100C9000E061090A434D6B5C4568DD4085603A4D73
:100CA0006D6805F46051C90A3E4D6B5C4568DD40D6
:100CB000C560354D6D6805F44041890B3A4D6B5C5C
:100CC000C568B5FBF3F5056130BD29B12E4A5269FF
:100CD00002432D4B5A6104E02B4A526982432A4B4E
:100CE0005A61704729B1284A92690243264B9A619A
:100CF00004E0254A92698243234B9A61704729B1E7
:100D0000214AD2690243204BDA6104E01E4AD269CB
:100D100082431D4BDA61704729B11B4AD2680243F6
:100D2000194BDA6004E0184AD2688243164BDA6045
:100D3000704729B1144A12690243134B1A6104E047
:100D4000114A12698243104B1A61704712494039A7
:100D5000086070470F49C86470470B49C8717047F5
:100D60000948406A40F08070074948627047014670
:100D70000020054A92680A400AB1012000E00020E4
:100D80007047014988727047001002400000FFF868
:100D9000FFFFF6FE000042428004424200127A0049
:100DA00000093D00140000202400002010B5044676
:100DB000FB48844209D101218803FFF7ADFF0021E0
:100DC0004FF48040FFF7A8FF32E0F648844209D193
:100DD00001214804FFF7ADFF00214FF40030FFF779
:100DE000A8FF25E0F048844209D101218804FFF7DB
:100DF000A0FF00214FF48020FFF79BFF18E0EB4895
:100E0000844209D10121C804FFF793FF00214FF468
:100E10000020FFF78EFF0BE0E548844208D1012156
:100E20000805FFF786FF00214FF48010FFF781FFD0
:100E300010BD2DE9F04786B005460E460024A246B7
:100E400000BFA1460027B08900B100BF2F462C8A01
:100E50004CF6FF700440F08804432C82AC894EF6B7
:100E6000F3100440B0883189084371890843044372
:100E7000AC81AC8A4FF6FF400440B0890443AC8299
:100E800001A8FFF7C2FEC648874202D1DDF810A0D4
:100E900001E0DDF80CA0A88900F4004040B10AEBA5
:100EA000CA0000EB0A1031684900B0FBF1F807E016
:100EB0000AEBCA0000EB0A1031688900B0FBF1F8B8
:100EC0006420B8FBF0F004012009642101FB1089C3
:100ED000A88900F4004040B1322000EBC900B0FB0B
:100EE000F1F000F00700044308E0322000EB0910A5
:100EF0006421B0FBF1F000F00F0004432C8106B038
:100F0000BDE8F0874FF41651016000218180C18057
:100F100001810C21418100218181704710B5024679
:100F20000020108A4FF2FF0318400B884C8823439F
:100F30008C882343CC8823431843108210BD0021A2
:100F4000018041808180C180704721B1828942F453
:100F50000052828104E082894DF6FF731A4082813B
:100F60007047F0B50346002400260025002040F617
:100F70006A17B94200D100BF1846C1F3421401F00C
:100F80001F06012707FA06F5012C01D10C3004E0F9
:100F9000022C01D1103000E014301AB107682F4341
:100FA000076002E00768AF430760F0BD1AB1838AAB
:100FB0000B43838202E0838A8B4383827047028AD9
:100FC0004FF6F0731A400282028A0A430282704787
:100FD00082894FF2FF731A40828182890A4382819B
:100FE000704721B1828942F00202828104E0828945
:100FF0004FF6FD731A4082817047028A4FF6DF7305
:101000001A400282028A0A430282704721B1028A90
:1010100042F48042028204E0028A4BF6FF731A40D7
:1010200002827047C1F308028280704701468888B7
:10103000C0F308007047818941F001018181704748
:10104000028BD2B20283028B42EA012202837047F2
:10105000028B02F47F420283028B0A4302837047B1
:1010600021B1828A42F02002828204E0828A4FF615
:10107000DF731A408282704721B1828A42F01002E7
:10108000828204E0828A4FF6EF731A4082827047B0
:1010900021B1828A42F00802828204E0828A4FF6FD
:1010A000F7731A408282704721B1828942F400426C
:1010B000828103E08289C2F30E028281704721B1EE
:1010C000828A42F40062828204E0828A4FF2FF73D5
:1010D0001A4082827047828A4FF6FB731A408282DE
:1010E000828A0A438282704721B1828A42F00202D8
:1010F000828204E0828A4FF6FD731A408282704732
:1011000002460020B1F5007F00D100BF13880B40DC
:101110000BB1012000E00020704701F40072B2F52D
:10112000007F00D100BFCA430280704770B50246FD
:10113000002400230025002040F66A16B14200D1A9
:1011400000BFC1F3421501F01F03012606FA03F3A5
:10115000012D02D19689334006E0022D02D1168A74
:10116000334001E0968A33400C12012606FA04F45B
:101170001688344013B10CB1012000E0002070BD8E
:1011800010B50022002340F66A14A14200D100BF2E
:101190000A1201249440A3B2DC43048010BD000075
:1011A000003801400044004000480040004C00402E
:1011B00000500040002044490860091D0860091DD6
:1011C0000860091D086041483F49143108607047B4
:1011D00000213D498279002A3AD00A461268036804
:1011E0009A430B461A600A1D126803689A430B1D46
:1011F0001A60027911440A6803681A430A60324A85
:101200000832126803689A432F4B08331A601A1D7C
:10121000126803689A432C4B0C331A604279102AE7
:101220000ED11A1F126803681A43274B08331A603D
:101230001A1D126803681A43234B0C331A600DE021
:101240002149427911440A6803681A430A6005E09B
:10125000027911440A6803689A430A6070470021C2
:10126000016001710C2141710021817170471649A3
:10127000103109680143144A103211607047014669
:101280000020114A143212680A400AB1012000E01D
:10129000002070470C491431086070470146002057
:1012A0000022094B1B6803EA0102074B14331B6839
:1012B0000B4013B10AB1012000E000207047024941
:1012C000143108607047000000040140FFFF0F0068
:1012D00010B50446FA48844208D101214015FFF7B1
:1012E0001BFD00216015FFF717FD17E0F54884424C
:1012F00008D101210015FFF70FFD00212015FFF790
:101300000BFD0BE0F048844208D10121C803FFF730
:1013100003FD00214FF40040FFF7FEFC10BD30B587
:101320000246002000235068E84C20400D790C68EC
:1013300044EA0524204350609068E54C2040D1E900
:1013400002542C434D7944EA450420439060D06A0E
:1013500020F470000C7C641EE4B2234340EA035086
:10136000D06230BD00210160017141718160C160B6
:1013700001210174704721B1826842F0010282604C
:1013800003E0826822F001028260704721B1826826
:1013900042F48072826003E0826822F4807282608C
:1013A000704710B50023CBB21AB144681C434460A7
:1013B00002E044689C43446010BD816841F008012C
:1013C00081607047014600208A6802F008020AB175
:1013D000012000E000207047816841F00401816035
:1013E0007047014600208A6802F004020AB1012019
:1013F00000E00020704721B1826842F4A0028260C0
:1014000003E0826822F4A002826070470146002057
:101410008A6802F480020AB1012000E000207047CF
:1014200010B50A4600210023416821F46041531E93
:1014300041EA4331416010BD21B1426842F400628B
:10144000426003E0426822F4006242607047F0B5F7
:1014500004460D4600200021092D11DDE068A5F1AC
:101460000A0606EB4607072606FA07F18843A5F1A8
:101470000A0606EB460603FA06F10843E0600CE0B4
:10148000206905EB4507072606FA07F1884305EBB7
:10149000450603FA06F108432061072A0FDA606B5C
:1014A000561E06EB86071F2606FA07F18843561ECE
:1014B00006EB860605FA06F10843606322E00D2A72
:1014C0000FDA206BD61F06EB86071F2606FA07F1F8
:1014D0008843D61F06EB860605FA06F1084320630B
:1014E00010E0E06AA2F10D0606EB86071F2606FA59
:1014F00007F18843A2F10D0606EB860605FA06F110
:101500000843E062F0BD21B1826842F4801282603B
:1015100003E0826822F48012826070470146C86C42
:1015200080B2704766484C300068704721B142680D
:1015300042F48062426003E0426822F480624260CA
:10154000704721B1426842F48052426003E0426831
:1015500022F48052426070470A460021816821F4DB
:10156000E04111438160704721B1826842F400423A
:10157000826003E0826822F400428260704721B1F9
:10158000826842F40212826003E0826822F402124E
:1015900082607047014600208A6802F400120AB196
:1015A000012000E000207047F0B5044615460020F9
:1015B00000220026092911DDE068A1F10A0707EBE6
:1015C000470C072707FA0CF29043A1F10A0707EB33
:1015D000470703FA07F21043E0600CE0206901EBD3
:1015E000410C072707FA0CF2904301EB410703FA7D
:1015F00007F210432061A06BC0F30156EF1C06F107
:10160000010CA7EB0C0707EB870C1F2707FA0CF25E
:101610009043EF1C06F1010CA7EB0C0707EB8707C3
:1016200001FA07F21043A063F0BD10B50A4600218D
:101630000023816B21F44011531E41EA0351816361
:1016400010BD08B5002300930090009B0B4400934D
:10165000009B1A6008BD08B5024600200090009269
:1016600001F12800009B184400900098006880B2A7
:1016700008BD0A4600214168164B194011434160DC
:1016800070474162826270470A460021416821F03A
:101690001F0111434160704740B109490831096891
:1016A00041F40001064A0832116007E0044908319C
:1016B000096821F40001024A0832116070470000F5
:1016C0000024014000280140003C0140FFFEF0FFE3
:1016D000FDF7F1FFFFFD3FFF0246002013680B40BE
:1016E0000BB1012000E000207047CA430260704740
:1016F00070B502460020002300240B125568CEB2BC
:1017000005EA060415681D4015B10CB1012000E082
:10171000002070BD00220A12D3430360704700000E
:1017200001684FF6FE7211400160002101604160C6
:101730008160C1608D49884208D18C490839496867
:1017400041F00F01894A083A51608AE08749143113
:10175000884208D185490839496841F0F001834A37
:10176000083A51607DE081492831884208D17F499B
:101770000839496841F470617C4A083A516070E068
:101780007A493C31884208D178490839496841F49E
:101790007041764A083A516063E07449503188429A
:1017A00008D172490839496841F470216F4A083AF2
:1017B000516056E06D496431884208D16B4908395F
:1017C000496841F47001694A083A516049E0674943
:1017D0007831884208D165490839496841F070611B
:1017E000624A083A51603CE06149884206D1011FD3
:1017F000096841F00F01021F116032E05C491431A9
:10180000884208D15A49091F096841F0F001584A35
:10181000121F116025E056492831884208D15449E9
:10182000091F096841F47061514A121F116018E0E4
:101830004F493C31884208D14D49091F096841F49C
:1018400070414B4A121F11600BE0494950318842E8
:1018500007D14749091F096841F47021444A121F02
:101860001160704710B50022026847F6F0739A4382
:101870000C6A8B6823430C6923434C6923438C69AE
:101880002343CC6923434C6A23438C6A23431A4382
:101890000260CB6843600B6883604B68C36010BD17
:1018A0000021016041608160C1600161416181612D
:1018B000C161016241628162704721B1026842F0F8
:1018C0000102026004E002684FF6FE731A400260F3
:1018D00070471AB103680B43036002E003688B434F
:1018E00003607047416070470146486880B27047A6
:1018F00001460020002201F080531BB11C4B083B25
:101900001A6802E0194B083B1A6802EA01030BB19E
:10191000012000E00020704700F0805119B1144907
:10192000091F086002E01149083948607047014604
:101930000020002201F080531BB10D4B083B1A68B8
:1019400002E00A4B083B1A6802EA01030BB10120CE
:1019500000E00020704700F0805119B10449091FD0
:10196000086002E0014908394860704708000240F9
:101970000804024010B50446FE48844208D1012103
:10198000C014FFF7C9F90021E014FFF7C5F9C4E05E
:10199000B4F1804F08D101210846FFF7CAF90021B0
:1019A0000120FFF7C6F9B8E0F348844208D10121CD
:1019B0000220FFF7BEF900210220FFF7BAF9ACE0E0
:1019C000EE48844208D101210420FFF7B2F900213A
:1019D0000420FFF7AEF9A0E0E948844208D10121D4
:1019E0000820FFF7A6F900210820FFF7A2F994E0EC
:1019F000E448844208D101211020FFF79AF9002120
:101A00001020FFF796F988E0DF48844208D10121D1
:101A10002020FFF78EF900212020FFF78AF97CE0D3
:101A2000DA48844208D101214014FFF775F90021FA
:101A30006014FFF771F970E0D548844209D10121A3
:101A4000C804FFF769F900214FF40020FFF764F99B
:101A500063E0D048844209D101210805FFF75CF911
:101A600000214FF48010FFF757F956E0CA4884422E
:101A700009D101214805FFF74FF900214FF400106B
:101A8000FFF74AF949E0C548844208D101214020C6
:101A9000FFF74FF900214020FFF74BF93DE0C04828
:101AA000844208D101218020FFF743F900218020E2
:101AB000FFF73FF931E0BB48844208D1012180158E
:101AC000FFF737F90021A015FFF733F925E0B648F5
:101AD000844209D101210804FFF71EF900214FF4C7
:101AE0008030FFF719F918E0B048844209D101218C
:101AF0004804FFF711F900214FF40030FFF70CF90B
:101B00000BE0AB48844208D101218804FFF704F9B7
:101B100000214FF48020FFF7FFF810BD002202885B
:101B2000944B98420ED0994B98420BD0B0F1804F15
:101B300008D0914B984205D0904B984202D0904BE0
:101B4000984204D14FF68F731A404B881A438D4B3D
:101B5000984207D08C4B984204D04FF6FF431A406E
:101B6000CB881A4302808B8883850B880385814B41
:101B700098420BD0854B984208D08B4B984205D0A9
:101B80008A4B984202D08A4B984201D10B7A038645
:101B900001238382704770B5002400220023058C46
:101BA0004FF6FE7635400584028C8388048B4FF611
:101BB0008F752C40B51E2C400D882C43751E2A4075
:101BC0000D892A434D882A436A4DA8420BD06F4D98
:101BD000A84208D0744DA84205D0744DA84202D046
:101BE000734DA84213D14FF6F7752A404D892A4309
:101BF0004FF6FB752A408D882A434FF6FF652B4030
:101C00004FF6FF552B408D892B43CD892B43838085
:101C10000483CD888586028470BD70B500240022BF
:101C20000023058C4FF6EF7635400584028C8388BF
:101C3000048B48F6FF752C404FF6FF452C400D886D
:101C40004FF6FF7606EA05252C434FF6DF752A404E
:101C50000D8906EA05152A434D8806EA05152A432B
:101C6000444DA84202D0494DA8421DD14FF67F7580
:101C70002A404D894FF6FF7606EA05152A434FF6AE
:101C8000BF752A408D8806EA05152A434FF6FF35B1
:101C90002B404FF2FF752B408D8906EA85052B43BB
:101CA000CD8906EA85052B4383800483CD8805878B
:101CB000028470BD70B5002400220023058C4FF60D
:101CC000FF6635400584028C8388848B4FF68F75C0
:101CD0002C404FF6FC752C400D882C434FF6FF55D9
:101CE0002A400D894FF6FF7606EA05252A434D88DE
:101CF00006EA05252A431F4DA84202D0234DA842DB
:101D00001DD14FF2FF752A404D894FF6FF7606EA46
:101D100005252A434FF6FF352A408D8806EA05251A
:101D20002A434EF6FF752B404DF6FF752B408D89EB
:101D300006EA05152B43CD8906EA05152B4383805A
:101D40008483CD888587028470BD70B5002200230E
:101D50000024058C4EF6FF7635400584038C84887C
:101D6000828B48F6FF752A404FF6FF452A400D88C2
:101D700020E00000002C014000040040000800406A
:101D8000000C0040001000400014004000340140EE
:101D9000004C014000500140005401400018004038
:101DA000001C004000200040004001400044014071
:101DB000004801404FF6FF7606EA05252A434DF616
:101DC000FF752B400D8906EA05352B434D8806EA41
:101DD00005352B43FA4DA84202D0FA4DA84208D14E
:101DE0004BF6FF752C408D894FF6FF7606EA851578
:101DF0002C4384808283CD88A0F84050038470BD3A
:101E0000828B4FF2FF331A408283828B4FF6FF732F
:101E100003EA01231A4382837047F0B50C46154646
:101E2000002200210026078C4EF6FF7C07EA0C07F3
:101E30000784828B018C4FF6FF7707EA043640F661
:101E4000FF473A404FF6FF7707EA05273A434FF638
:101E5000FF7707EA03373A43D94FB8420ED0D94F3C
:101E6000B8420BD0B0F1804F08D0D74FB84205D060
:101E7000D64FB84202D0D64FB84206D14DF6FF77C2
:101E8000394046F48057394305E047F6FF5739405B
:101E900044F48057394382830184F0BD828B4FF62E
:101EA000F3731A408283828B0A4382837047F0B5B2
:101EB0000C461546002200210026078C4FF6FF6CC9
:101EC00007EA0C070784828B018C4FF6FF7707EA3D
:101ED00004264FF60C773A404FF6FF7707EA0317D0
:101EE0002F433A43B64FB8420ED0B64FB8420BD04C
:101EF000B0F1804F08D0B44FB84205D0B34FB842CC
:101F000002D0B34FB84206D14FF6FF57394046F4DE
:101F10008077394305E04FF2FF57394044F480772A
:101F2000394382830184F0BD028B4FF2FF331A40A4
:101F30000283028B4FF6FF7303EA01231A430283E5
:101F40007047F0B50C461546002200210026078C8C
:101F50004FF6EF7C07EA0C070784028B018C4FF6E3
:101F6000FF7707EA041640F6FF473A404FF6FF773F
:101F700007EA03373A434FF6FF7707EA05273A4364
:101F80008F4FB8420ED08F4FB8420BD0B0F1804F78
:101F900008D08D4FB84205D08C4FB84202D08C4F3C
:101FA000B84206D14FF6DF77394046F01007394383
:101FB00005E04FF65F77394044F01007394302835C
:101FC0000184F0BD028B4FF6F3731A400283028B3B
:101FD0000A4302837047F0B50C46154600220021E3
:101FE000068C4FF6FE773E400684028B018C4FF63E
:101FF0000C7632407E1C06EA03162E433243704EA6
:10200000B0420ED06F4EB0420BD0B0F1804F08D02E
:102010006D4EB04205D06D4EB04202D06C4EB04213
:1020200006D14FF6FD76314044F00106314305E01C
:102030004FF6F576314044F00106314302830184C6
:10204000F0BD70B505460C465D4885420ED05D4832
:1020500085420BD0B5F1804F08D05B48854205D052
:102060005A48854202D05A48854200D100E000BF5C
:10207000208850B92389A28861882846FFF7ABFFE2
:10208000E1882846FFF79EFF25E0208804280AD132
:102090002389A28861882846FFF753FFE1882846F4
:1020A000FFF742FF17E0208808280AD12389A28879
:1020B00061882846FFF7FBFEE1882846FFF7EEFE21
:1020C00009E02389A28861882846FFF7A6FEE188F7
:1020D0002846FFF795FE70BD2DE9F04105460C46F8
:1020E00000260127608808B9022600E00026A088A3
:1020F000012801D1022700E001272088A0B9238907
:10210000A28861882846FFF766FFE1882846FFF726
:1021100059FF23893A4631462846FFF712FFE188E6
:102120002846FFF701FF13E02389A288618828462B
:10213000FFF707FFE1882846FFF7F6FE23893A46B6
:1021400031462846FFF747FFE1882846FFF73AFF68
:10215000BDE8F0810A884B881A438B881A43CB88E4
:102160001A430B891A434B891A438B891A43A0F8E7
:10217000442070474FF6FF71818000210180C180AB
:102180004180017270470021018041808180C180BF
:10219000018141818181C18170470021018041809D
:1021A000012181800021C1800181704700210180CF
:1021B00041808180C180018141818181704700001F
:1021C000002C0140003401400004004000080040A1
:1021D000000C004021B1028842F00102028004E0BC
:1021E00002884FF6FE731A400280704731B1B0F892
:1021F000442042F40042A0F8442005E0B0F8442016
:10220000C2F30E02A0F8442070471AB183890B4331
:10221000838102E083898B43838170478182704789
:1022200041EA0203A0F8483070471AB183890B4392
:10223000838102E083898B438381704701894FF654
:10224000F8721140018170470A46002101894FF65A
:102250008F73194011430181704730B504460D4614
:1022600029462046FFF7F0FF208940F00700208133
:1022700030BD2DE9F04104460D4616461F46602D3F
:1022800006D13B46012231462046FFF75AFE05E0C3
:102290003B46012231462046FFF79DFE2946204657
:1022A000FFF7D2FF208940F007002081BDE8F081D0
:1022B00030B50C4600210189C9B24FF6FF7505EA19
:1022C0000325154325432943018130BD2DE9F04104
:1022D00005460E4617469846002443463A46314680
:1022E0002846FFF7E5FF2C894FF6F870044044F0CC
:1022F00007044FF68F70044044F070042C81BDE851
:10230000F081F0B504460D4616461F463B46324660
:1023100029462046FFF7CCFF208940F480402081E9
:10232000F0BD0185828270470A46002101884FF680
:102330008F731940114301807047F0B50C46154664
:102340001E460021002200230189028B038C4FF6D8
:10235000F877394021434FF6FC473A4040F20117E5
:102360003A434FF6DD773B404FF6FF7707EA061713
:102370002F433B43018102830384F0BD0A460021C1
:10238000018B4FF68F7319401143018370470A4642
:102390000021018B48F6FF7319404FF6FF7303EAE3
:1023A00002231943018370470A460021818B4FF6AF
:1023B0008F7319401143818370470A460021818B36
:1023C00048F6FF7319404FF6FF7303EA02231943DF
:1023D0008183704721B1028842F08002028004E0CC
:1023E00002884FF67F731A400280704721B18288BD
:1023F00042F00402828004E082884FF6FB731A40A8
:102400008280704721B1828842F00802828004E015
:1024100082884FF6F7731A408280704721B1828814
:1024200042F00102828004E082884FF6FE731A4077
:10243000828070470A460021018B4FF6F7731940DE
:102440001143018370470A460021018B4FF2FF734D
:1024500019404FF6FF7303EA0223194301837047C3
:102460000A460021818B4FF6F7731940114381838F
:1024700070470A460021818B4FF2FF7319404FF6D7
:10248000FF7303EA02231943818370470A46002140
:10249000018B4FF6FB7319401143018370470A46C5
:1024A0000021018B4FF6FF3319404FF6FF7303EA0B
:1024B00002231943018370470A460021818B4FF69E
:1024C000FB7319401143818370470A460021818BB9
:1024D0004FF6FF3319404FF6FF7303EA0223194307
:1024E000818370470A460021018B4FF67F731940A4
:1024F0001143018370470A460021018BC1F30E018D
:102500004FF6FF7303EA02231943018370470A461B
:102510000021818B4FF67F731940114381837047EF
:102520000A460021818BC1F30E014FF6FF7303EAC7
:1025300002231943818370470A460021018C4FF61C
:10254000FD7319401143018470470A460021018C34
:102550004FF6F77319401143018470470A46002172
:10256000018C4FF6DF7319404FF6FF7303EA021335
:102570001943018470470A460021018C4FF67F738E
:1025800019404FF6FF7303EA0213194301847047A1
:102590000A460021018C4FF6FF5319404FF6FF7396
:1025A00003EA02231943018470470A460021018C83
:1025B0004FF2FF7319404FF6FF7303EA02231943EA
:1025C000018470470A460021018C4DF6FF731940C3
:1025D0004FF6FF7303EA023319430184704730B5A5
:1025E000002301248C40A3B2048C9C430484048CFB
:1025F00002FA01F5ADB22C43048430BD30B500239E
:1026000004248C40A3B2048C9C430484048C02FAFE
:1026100001F5ADB22C43048430BD70B503460020F3
:1026200000241846183001258D40ACB21D8CA543FE
:102630001D8409B1082909D100EB6100056825F066
:10264000700505600568154305600EE00D1FC5F3B4
:102650004E052844056825F4E045056005684FF6F9
:10266000FF7606EA02263543056070BD21B1028877
:1026700042F00202028004E002884FF6FD731A4025
:102680000280704721B1028842F00402028004E017
:1026900002884FF6FB731A400280704721B182888E
:1026A00042F08002828004E082884FF67F731A40F5
:1026B0008280704702884FF6F7731A4002800288C2
:1026C0000A430280704782884FF68F731A408280D7
:1026D00082880A438280704702894FF6F8731A4055
:1026E000028102890A430281704702894FF67F7393
:1026F0001A40028102890A4302817047818470472F
:102700008185704781867047018770478187704750
:10271000A0F84010704702884FF6FF431A4002802D
:1027200002880A43028070470146888E704701463E
:10273000088F70470146888F70470146B1F8400006
:1027400070470146888C70470146088D70470246E5
:102750000020138A0B400BB1012000E000207047DD
:10276000CA430282704730B502460020002300248D
:10277000158A05EA0103958905EA010413B10CB134
:10278000012000E0002030BDCA43028270470000F3
:102790004FF0E020006920F004004FF0E0210861D4
:1027A0000920364908700846007800EB4001C1EB6B
:1027B000C0104FF6FF7101EAC00031490880704730
:1027C000002120F07F402D4A127842434FF0E02351
:1027D0005A6100229A6101221A6100BF4FF0E02283
:1027E000116901F001021AB101F48032002AF5D01A
:1027F00000224FF0E0231A619A617047002100B96E
:10280000704720F07F401E4A128842434FF0E02379
:102810005A6100229A6101221A6100BF4FF0E02242
:10282000116901F001021AB101F48032002AF5D0D9
:1028300000224FF0E0231A619A6100BFE0E770B513
:102840000446002600254FF4FA7094FBF0F0C6B25F
:102850004FF4FA7094FBF0F100FB114085B205E0F3
:102860004FF4FA70FFF7CAFF701EC6B2002EF7D100
:1028700015B12846FFF7C2FF70BD000028000020F8
:102880002A00002010B586B0044601210420FEF77E
:1028900029FA01218803FEF725FA18208DF8170080
:1028A0004FF40070ADF8140003208DF8160005A950
:1028B0006B48FDF75BFF04208DF817000002ADF8B0
:1028C000140003208DF8160005A96548FDF74EFF9A
:1028D00001940020ADF810000C20ADF80E0000208F
:1028E000ADF80C00ADF80A00ADF8080001A95D488C
:1028F000FEF79FFA01215B48FEF727FB012240F219
:1029000025515848FEF72DFB25208DF800000120A9
:102910008DF8030000208DF8010002208DF80200E0
:102920006846FDF75AFE06B010BD10B586B00446E5
:1029300001210420FEF7D6F901214804FEF7DFF952
:1029400018208DF817000420ADF8140003208DF82E
:10295000160005A94248FDF709FF04208DF817006D
:102960000820ADF8140003208DF8160005A93C4896
:10297000FDF7FCFE01940020ADF810000C20ADF82E
:102980000E000020ADF80C00ADF80A00ADF808000C
:1029900001A93548FEF74DFA01213348FEF7D5FA73
:1029A000012240F225513048FEF7DBFA26208DF84F
:1029B000000001208DF8030000208DF801008DF843
:1029C00002006846FDF709FE06B010BD2DE9F04192
:1029D00007460C46154600260DE014F8011B384644
:1029E000FEF720FB00BF40213846FEF789FB002898
:1029F000F9D0701C86B2AE42EFDBBDE8F0810FB4B7
:102A000030B5CBB0054601AC50A800904FF494719E
:102A100001A8009B4F9A05F0EBFA002000900BE014
:102A200014F8011B2846FEF7FDFA00BF4021284696
:102A3000FEF766FB0028F9D020780028F0D14BB0D3
:102A400030BC5DF814FB10B540F225510548FEF787
:102A50006DFB18B120210348FEF75FFB10BD00009D
:102A600000080140003801400044004010B5044611
:102A700084F0010220210E48FDF729FF0D48047063
:102A800010BD08B501210820FEF72CF910208DF8A3
:102A900003002020ADF8000003208DF802006946F5
:102AA0000348FDF763FE0020FFF7E0FF08BD0000CC
:102AB000000C01402C0000201FB501210820FEF76A
:102AC00011F901210846FEF70DF948208DF80F0095
:102AD0004FF40040ADF80C0003208DF80E0003A960
:102AE0001B48FDF743FE0F210120FDF755FF4FF472
:102AF0000040019000208DF808000C208DF809009E
:102B000001208DF80A0001A8FEF762FB28208DF84D
:102B1000000002208DF801008DF8020001208DF8E0
:102B200003006846FDF759FD1FBD10B51420FFF7DF
:102B300065FE4FF400410648FDF7ABFE10B90120D9
:102B4000044908704FF40040FEF7B9FB10BD0000C7
:102B5000000C01405D00002010B56648006820F0C0
:102B60007060644908600846006840F04070086082
:102B7000002240215F48FDF7AAFE1420FFF73EFE29
:102B8000012240215B48FDF7A2FE1E20FFF718FE40
:102B900010BD10B500245748006820F070605549FA
:102BA00008600846006840F00060086004E0601CAF
:102BB000C4B20120FFF704FE40214E48FDF769FE34
:102BC00008B1642CF3DB642C01DB012010BD002470
:102BD00004E0601CC4B20120FFF7F2FD402145482B
:102BE000FDF757FE08B9642CF3DB642C01DB0120F0
:102BF000ECE70020EAE710B5002404E0601CC4B252
:102C00000120FFF7DDFD40213A48FDF742FE08B103
:102C1000642CF3DB002404E0601CC4B20120FFF745
:102C2000CFFD40213348FDF734FE08B9642CF3DBB7
:102C30002820FFF7C5FD40212E48FDF72AFE08B1E8
:102C4000012010BD0020FCE770B50024002506E03F
:102C50006006040EFFF7CFFF0443681CC5B2082DC1
:102C6000F6DB204670BD7CB505460E46FFF774FFC7
:102C7000FFF78FFFF8B9002405E0FFF7E5FF0DF837
:102C80000400601CC4B2052CF7DB9DF800009DF821
:102C9000011008449DF8021008449DF803100844F0
:102CA0009DF80410884208D19DF8000030709DF80E
:102CB0000200287001E001207CBD0020FCE708B57F
:102CC00001210420FEF70EF84020ADF8000010208E
:102CD0008DF8030003208DF8020069460548FDF7D2
:102CE00045FD40210348FDF7EEFDFFF735FFFFF7F7
:102CF00050FF08BD0008014008B501210420FDF780
:102D0000F1FF0320ADF8000000208DF803006946B4
:102D10006948FDF72BFD08BD00B591B001210846BB
:102D2000FDF7D3FF01214802FDF7DCFF6348FEF702
:102D3000F7FC634806906348079000200890022043
:102D4000099000200A9080200B9040000C90800099
:102D50000D9020200E9000020F900020109006A9E8
:102D60005648FEF77FFD01215448FEF7A6FD0020DE
:102D7000019001208DF808008DF809004FF46020C3
:102D800003900020049002208DF8140001A94C4803
:102D90004C38FEF7C4FA4FF44040FDF707FF052317
:102DA0000122114646484C38FEF751FB052302220A
:102DB000002143484C38FEF74AFB012140484C387B
:102DC000FEF7E4FA01213E484C38FEF7D4FA3C48BD
:102DD0004C38FEF7F2FA00BF39484C38FEF7F2FAE9
:102DE0000028F9D136484C38FEF7F6FA00BF3448CF
:102DF0004C38FEF7F6FA0028F9D1012130484C385A
:102E0000FEF7F9FA11B000BD10B5FFF775FFFFF737
:102E100083FF10BD2DE9F14F84B000BF2A492B4834
:102E2000CDE9001000BF2A492A48CDE902100498D4
:102E300008F076FA06460F46049808F071FA8046C4
:102E4000DDE9022308F0BCFA824632463B4608F030
:102E5000B7FA04460D4622462B461F481F4908F084
:102E6000AFFA04460D4622462B461B481B4908F084
:102E7000A7FA04460D4620462946DDE9002308F05E
:102E8000C5FC04460D460022154B2046294608F095
:102E900097FA05B0BDE8F08F70B5054600240948E3
:102EA00044882820B4FBF0F4642C00D96424A0B238
:102EB00008F036FA70BD000000080140080002402A
:102EC0004C2401402E0000209A99999999993140FB
:102ED000F6285C8FC2F52140FCA9F1D24D62503F2B
:102EE0000000F43F08B50020009001210420FDF708
:102EF000F9FE4FF400611648FDF7E5FC4FF4006061
:102F0000ADF8000004208DF8030003208DF80200C6
:102F100069460F48FDF72AFC08BD70B504460D460A
:102F200029462046FDF7B5FC08B9002070BD0120F8
:102F3000FCE710B54FF400610548FFF7EEFF18B944
:102F40000020FFF793FD02E00120FFF78FFD10BD89
:102F50000008014010B501210820FDF7C3FE18202C
:102F60004A49C87001200880032088704848FDF74E
:102F7000FDFB10BD70B504460E461546012102202A
:102F8000FDF7BDFE00204349C8804880701E888040
:102F9000601E0880002008723F48FEF7BFFD6020D9
:102FA0003E49088001204880002088804FF48070CE
:102FB000888100200881C8814881681EC880364801
:102FC000FEF778FE20213448FFF73EF9042132480D
:102FD000FFF782FB20213048FFF775FB80212E4848
:102FE000FFF783FBFFF7B6FF01212B48FFF7F2F84D
:102FF00070BD10B501210420FDF774FE01210420ED
:10300000FDF770FE10202149C87030200880032091
:1030100088702348FDF7AAFB80201C4908802048BF
:10302000FDF7A4FB80211E48FDF74DFC10BD10B537
:1030300020211B48FDF747FC10211948FDF745FCEE
:1030400010BD10B510211648FDF73DFC2021144895
:10305000FDF73BFC10BD104A2C321188884200DD80
:1030600008460D4A3C321080704700B50020FFF73B
:10307000F2FF00BD00B53220FFF7EDFF00BD10B537
:1030800080210748FDF71FFC10BD00003200002022
:10309000000C0140FC040020000400400605002054
:1030A0000008014008B50020009001210420FDF730
:1030B00019FE4FF480511A48FDF707FC4FF4805079
:1030C000ADF8000010208DF8030003208DF80200F9
:1030D00069461348FDF74AFB08BD70B505460E4624
:1030E000144624B931462846FDF7EFFB03E031468C
:1030F0002846FDF7E8FB70BD70B505460E46144640
:1031000024B931462846FDF7DEFB03E03146284668
:10311000FDF7DBFB70BDC2684A40C260704700002B
:10312000000C014008B501211020FDF7DBFD4FF434
:103130000050ADF8000010208DF8030003208DF83A
:10314000020069460448FDF711FB4FF400510248A4
:10315000FDF7B9FB08BD00000010014000B587B0C5
:1031600001218804FDF7CBFD01210820FDF7BAFD00
:103170004FF48060ADF8180003208DF81A00182075
:103180008DF81B0006A95748FDF7F0FA4FF40060D0
:10319000ADF8180004208DF81B0006A95148FDF772
:1031A000E5FA27208DF8040000208DF805000420A2
:1031B0008DF8060001208DF8070001A8FDF70DFA33
:1031C0004FF4165002900020ADF80C00ADF80E0040
:1031D000ADF81000ADF814000C20ADF8120002A9F3
:1031E0004148FDF726FE012240F225513E48FDF7F9
:1031F000B8FE01213C48FDF7A8FE07B000BD10B5A0
:1032000040F225513848FDF791FF00285BD0364841
:10321000FDF70CFFC4B23548007820B1012817D063
:1032200002284AD127E02C2C0CD1314831490978A9
:10323000445430480078401C2E49087001202B4926
:10324000087004E000202B4908702849087034E019
:10325000274828490978445426480078401C2549C5
:10326000087008460078062804DB00200870022059
:103270001E49087021E01E4800781D49497808441D
:103280001B49897808441A49C978084418490979BA
:103290000844C0B216494979884208D10020134930
:1032A00008701449087001201349087004E00020D8
:1032B000104908700D49087000BF00BF40F2255149
:1032C0000948FDF75DFF10BD0B490978012908D1B8
:1032D0000021094A117006498A78497802EB0121D8
:1032E00001807047000C0140004800403D00002074
:1032F000360000203E0000203C0000203EB5FD4886
:10330000007800284CD11023FBA200213C2004F0BF
:10331000EDFCFA480278FAA1684604F083FE102317
:103320006A4600213C2004F0E1FC1023F2A20221B5
:103330003C2004F0DBFCF3480278F1A1684604F07D
:1033400071FE10236A4602213C2004F0CFFC1023BA
:10335000E9A204213C2004F0C9FCEB480288E8A162
:10336000684604F05FFE10236A4604213C2004F006
:10337000BDFC1023E5A206213C2004F0B7FCE54982
:1033800003C907F089FF84B22246E3A1684604F02E
:1033900049FE10236A4606213C2004F0A7FC59E0B0
:1033A000D4480078012855D11023DCA20021302018
:1033B00004F09CFCDB480288DBA1684604F032FE86
:1033C00010236A460021302004F090FC1023D3A281
:1033D00002213C2004F08AFC2021D448FDF766FA43
:1033E00030B91023D2A202213C2004F07FFC05E07A
:1033F0001023D0A202213C2004F078FC1023C7A2A5
:1034000004213C2004F072FCCB48007830B110233A
:10341000C7A204213C2004F069FC05E01023C5A2EA
:1034200004213C2004F062FC1023BCA206213C20B5
:1034300004F05CFCC148007830B11023BCA2062126
:103440003C2004F053FC05E01023BAA206213C20E6
:1034500004F04CFC3EBD10B5044604F06DFB002C9E
:1034600053D101220021084604F05DFC0222002114
:10347000122004F058FC00221146242004F053FCD2
:1034800003220021642004F04EFC042202210020CB
:1034900004F049FC05220221122004F044FC002221
:1034A0000221242004F03FFC1023A5A20221642065
:1034B00004F01CFC0A220421002004F034FC0B223E
:1034C0000421122004F02FFC00220421242004F007
:1034D0002AFC10239AA20421642004F007FC0C2289
:1034E0000621002004F01FFC0D220621122004F00A
:1034F0001AFC00220621242004F015FC102391A2BE
:103500000621642004F0F2FB35E0012C33D11023B6
:103510008DA20021084604F0E9FB10238CA20021B3
:10352000642004F0E3FB07220221002004F0FBFBEF
:1035300000220221242004F0F6FB0E2204210020A8
:1035400004F0F1FB0F220421122004F0ECFB002216
:103550000421242004F0E7FB10220621002004F0BF
:10356000E2FB11220621122004F0DDFB00220621DD
:10357000242004F0D8FB10BD10B54FF4A060FDF777
:1035800027F8FFF705F94FF4E130FFF77BF94FF427
:10359000E130FFF7CAF9FFF7E1FDFFF78DFAFFF71A
:1035A00070FA04F033FCFFF72FFCFFF79BFCFFF7EA
:1035B00020FD1E2264214820FFF7DCFCFFF772FD8E
:1035C000FFF7B0FD09E0102362A20021084604F0D5
:1035D0008DFB4FF47A70FFF732F9FFF770FB00288C
:1035E000F1D104F0A9FA10235DA20021084604F0ED
:1035F0007DFB4FF47A70FFF722F910BD00250024FF
:1036000000BFFFF7B9FF02F07FFB04F095FA10232B
:1036100058A20021084604F069FB03E04FF4FA7059
:10362000FFF7ECF859A15BA002F00FFB0028F5D1E1
:10363000102364A2042104F059FB4FF4FA70FFF741
:10364000DDF804F079FA102365A20021084604F0A1
:103650004DFB07E04DA14FA002F0F7FA4FF4FA70CE
:10366000FFF7CCF800F0EBFA0028F3D100F01EFED3
:1036700020480078FFF7EFFE35E15E48007880B122
:1036800000205C4908701B490978481C00EBD07188
:103690004910A0EB4101174A117010460078FFF75E
:1036A000DAFE681C80B2054664281EDB1549134803
:1036B000FFF7D9FA1B48FFF707FE4F4800884F492C
:1036C00008804D494888FFF7E7FB064607F0E4FD10
:1036D0000D49088049480088FFF79CFB0D4A03C24A
:1036E00000F07FFD002502F091FA002002F0EAFAD6
:1036F000044685E05C0000202020200050000020CF
:103700002532640051000020540000202020202099
:1037100020000000600000202533640020202020CD
:10372000000000005800002025346400000C014017
:103730004F4E20004F4646005A0000205B000020FC
:10374000250000006D6D0000434F323A000000007C
:1037500070706D004448543131204572726F7200B0
:10376000486172647761726520696E6974204F4B9D
:1037700000000000436F6E6E656374204D51545419
:1037800073205365727665722E2E2E00434F4E4E77
:103790004543540041542B43495053544152543DE6
:1037A00022544350222C226D717474732E68656309
:1037B0006C6F7564732E636F6D222C313838330D46
:1037C0000A000000436F6E6E656374204D515454BF
:1037D0002053657276657220537563636573730059
:1037E000446576696365206C6F67696E202E2E2EA6
:1037F000000000005D0000202E0000205600002088
:1038000014B1204600F07DFDFFF778FD0A20FFF798
:1038100016F83548007888B13448006870B13348EC
:103820000068401E314908600846006830B9002031
:103830002D4908702EA13C48FFF7E1F82A4800788E
:1038400008B9FFF776FB3948007800BB38480078A4
:103850003849097888420FDD012211033648FFF705
:103860003CFCFFF70CFC1E20FFF7F5FBFFF7DFFB2E
:1038700001203249087017E0012211032E48FFF79A
:103880003BFCFFF7F2FB00202C4908700CE02B48B2
:10389000007838B1FFF7F3FB1E20FFF7DCFBFFF7E2
:1038A000C6FB01E0FFF7E1FB2548007888B9254811
:1038B000008825490978884205DA012023490860F3
:1038C000234908700FE00020204908602049087053
:1038D00009E01F48007818B101201C49086002E087
:1038E00000201A490860C8E640000020440000207B
:1038F0004D616E75616C206C69676874206F7665C8
:1039000072726964652074696D6564206F75742EC8
:1039100020526576657274696E6720746F206175D8
:10392000746F2E0D0A000000003801404100002095
:103930005000002052000020000C01405A000020DE
:10394000420000205400002053000020B401224215
:103950005B000020F0B58BB0054600260024284609
:1039600004F0B2FEC7B20DB11C2F02DA01200BB079
:10397000F0BD06E0A85D01A988550020A855701C7F
:10398000C6B2BE42F6DB002001A9885500260024FD
:1039900055E001A8805D2B2810D008DC202814D029
:1039A00023282ED0252825D026283FD130E02F28C7
:1039B00012D03D2833D03F2838D114E02819FEA179
:1039C00004F0ECFEE01CC4B236E02819FBA104F0C0
:1039D000E5FEE01CC4B22FE02819F9A104F0DEFED8
:1039E000E01CC4B228E02819F6A104F0D7FEE01CC0
:1039F000C4B221E02819F4A104F0D0FEE01CC4B246
:103A00001AE02819F1A104F0C9FEE01CC4B213E0C9
:103A10002819EFA104F0C2FEE01CC4B20CE0281982
:103A2000ECA104F0BBFEE01CC4B205E001A8805D7F
:103A30002855601CC4B200BF00BF701CC6B2BE4295
:103A4000A7DB0020285500BF91E72DE9F04FC9B052
:103A500005460C4616461F460DF5A47898E8000F5B
:103A60000020489055B14CB1DB48864206D32FB1B7
:103A7000B9F1000F02D0BAF1780F03DA012049B092
:103A8000BDE8F08F402118A804F02DFF384604F05F
:103A90001BFE05903B4648AA4021009018A801F063
:103AA000F9F8482106A804F01EFFBBF1000F09D069
:103AB000CAA03346CBA248218DE8310006A804F005
:103AC000C7FA09E0C5A03346CCA248218DE8110110
:103AD000039506A804F0BCFA402128A804F003FFCF
:103AE00006A804F0F1FD059018A804F0EDFD04907F
:103AF00028A8009006AA18A8DDE9041300F084FFA6
:103B000000204890402138A804F0EDFE28A804F0D9
:103B1000DBFD059028AB48AA4021009038A801F0B1
:103B200019F838A8FFF716FFBBF1000F0CD038A822
:103B3000AAA12B46B9A2CDE90046CDE90210514613
:103B4000484604F085FA0CE038A8A4A12B46C14AE7
:103B5000CDE901860094CDE903105146484604F0B2
:103B600077FA00208BE72DE9F041ACB0012713254F
:103B70000026002405F1F00004F0D6F906461EB92F
:103B800038462CB0BDE8F08103E04FF4FA70FEF740
:103B900035FEB1A1B2A002F058F80028F5D10120FD
:103BA000902108AA0023CDE90032CDE90210B6A386
:103BB000C14AC2A1C4A0FFF748FFC6A11320CDE9A6
:103BC000000105F1F00108ABC54A304604F040FAA7
:103BD000304604F079FD1FFA80F84146304602F085
:103BE0005AF8FA2002F06EF8044624B1BDA120462E
:103BF00004F034FD0446CCB100200390BC4803A976
:103C000004ABBC4ACDE90010BB49204604F0D6FB0A
:103C100004280AD1B648039904ABB64ACDE900108E
:103C2000B6A1BE48FEF7EBFE002700BF304604F009
:103C3000AAF9BBA1BBA002F008F83846A1E730B54D
:103C4000B3B000202F903090319032900125A02108
:103C500007AAA0A3CDE90032CDE902108AA3964AB3
:103C600096A199A0FFF7F1FE07A894A399A2B1A18C
:103C70000090AA48FEF7C3FE2FA8002102910391ED
:103C8000CDE90410084601210B0292A2CDE90010F3
:103C900007A98AA001F05FF9002842D1309A91B2B9
:103CA0002F9801F0F8FFFA2002F00CF80446002CDF
:103CB00033D0204601F01AF902282ED1204601F017
:103CC000AFFA062823D2DFE800F003090E13181D0F
:103CD000A5A19248FEF793FE00251DE0A7A18F48FD
:103CE000FEF78DFE18E0ADA18C48FEF788FE13E0CC
:103CF000B3A18A48FEF783FE0EE0B9A18748FEF71C
:103D00007EFE09E0C0A18548FEF779FE04E0CAA165
:103D10008248FEF774FE00BF00BF2FA801F09EF896
:103D200003E0CDA17D48FEF76AFE284633B030BDE2
:103D300030B58DB00446302101A804F0D4FDD0A1E7
:103D4000204604F09DFC302101A804F0CCFDD248AF
:103D50000278D2A101A804F065F901A9204604F077
:103D60001DFD302101A804F0BEFDD3480278D3A187
:103D700001A804F057F901A9204604F00FFD3021F5
:103D800001A804F0B0FDD4480288D4A101A804F031
:103D900049F901A9204604F001FD302101A804F0F1
:103DA000A2FDD3480278D3A101A804F03BF901A9F0
:103DB000204604F0F3FCABE125324200253230000E
:103DC00025324600253346002532350025323300A2
:103DD00025323600253344009554415D73686131C6
:103DE0000000000025640A25730A70726F64756311
:103DF00074732F25730A25730000000025640A25BB
:103E0000730A70726F64756374732F25732F646502
:103E100076696365732F25730A257300766572735F
:103E2000696F6E3D2573267265733D70726F6475A0
:103E30006374732525324625732665743D256426F3
:103E40006D6574686F643D2573267369676E3D25E3
:103E50007300000048C60008434F4E4E45435400CF
:103E600041542B43495053544152543D22544350E2
:103E7000222C223138332E3233302E34302E33334D
:103E8000222C38300D0A0000367A336656395578C0
:103E90007779386C323945746832457673383242F6
:103EA0004D2F6B6C71523866725647357956566E87
:103EB0004A57453D0000000000CF9D7432387A37E4
:103EC000333868337A780000323031382D31302D74
:103ED0003331000074656D706C6174650000000022
:103EE00090C600086465766963655F6964000000D8
:103EF0002605002016050020FCC5000863726561D8
:103F00007465206465766963653A2025732C2025E5
:103F1000732C2025642C2025730D0A0000380140E5
:103F20004F4B000041542B434950434C4F53450DD8
:103F30000A0000004F6E654E45545F4465764C693B
:103F40006E6B0D0A4E414D453A2025732C202020E2
:103F50002050524F49443A2025732C202020204BDA
:103F600045593A25730D0A00546970733A20202090
:103F700020C1ACBDD3B3C9B9A60D0A005741524EFA
:103F80003A20202020C1ACBDD3CAA7B0DCA3BAD050
:103F9000ADD2E9B4EDCEF30D0A0000005741524E08
:103FA0003A20202020C1ACBDD3CAA7B0DCA3BAB749
:103FB000C7B7A8B5C4636C69656E7469640D0A00FF
:103FC0005741524E3A20202020C1ACBDD3CAA7B0E1
:103FD000DCA3BAB7FECEF1C6F7CAA7B0DC0D0A0063
:103FE0005741524E3A20202020C1ACBDD3CAA7B0C1
:103FF000DCA3BAD3C3BBA7C3FBBBF2C3DCC2EBB425
:10400000EDCEF30D0A0000005741524E3A20202019
:1040100020C1ACBDD3CAA7B0DCA3BAB7C7B7A8C18B
:10402000B4BDD328B1C8C8E7746F6B656EB7C7B7A6
:10403000A8290D0A000000004552523A20202020F5
:10404000C1ACBDD3CAA7B0DCA3BACEB4D6AAB4ED76
:10405000CEF30D0A000000005741524E3A202020B6
:10406000204D5154545F5061636B6574436F6E6EA5
:10407000656374204661696C65640D0A0000000088
:104080007B226964223A22313233222C22706172FF
:10409000616D73223A7B0000510000202248756D4B
:1040A0006964697479223A7B2276616C7565223A7B
:1040B00025647D2C00000000500000202254656D16
:1040C0007065726174757265223A7B2276616C75D7
:1040D00065223A25647D2C005800002022436F227F
:1040E0003A7B2276616C7565223A25647D2C00004E
:1040F000520000202274656D705F76616C756522D8
:104100003A7B2276616C7565223A25647D2C00002D
:10411000302101A804F0E7FBE0480278E0A101A803
:1041200003F080FF01A9204604F038FB302101A8EC
:1041300004F0D9FBE1480288E1A101A803F072FF75
:1041400001A9204604F02AFB302101A804F0CBFB92
:10415000E248007808B1E2A000E0E3A00246E4A152
:1041600001A803F05FFF01A9204604F017FB3021EE
:1041700001A804F0B8FBE348007808B1D8A000E03B
:10418000D9A00246E0A101A803F04CFF01A92046F6
:1041900004F004FB302101A804F0A5FBE0480078FE
:1041A00008B1CFA000E0D0A00246DEA101A803F034
:1041B00039FF01A9204604F0F1FAE0A1204604F0FD
:1041C000EDFA204604F080FA054623462A46DCA193
:1041D000E348FEF714FC204604F076FAC0B20DB0B6
:1041E00030BD30B5E9B0002065906690679068906A
:1041F000002400254FF4C87101A804F074FB01A845
:10420000FFF796FD0446002C23D065A80023224624
:10421000AFF240310090AFF25C3001F0F2F8A0B99B
:1042200008E001A8415D669A501C6690659881542B
:10423000681C05B2A542F4DB669A91B2659801F05C
:104240002AFD65A800F00AFE03E0C6A1C448FEF7F7
:10425000D6FB69B030BD70B588B005460C4600206D
:10426000049005900690079023462A46C5A1BC48B5
:10427000FEF7C5FB204604F027FA064604A80121F4
:10428000002200923346CDE90121039022462946BF
:104290000A2000F0D4FF38B9059A91B2049801F0D1
:1042A000FAFC04A800F0DAFD08B070BD00B595B0C6
:1042B0000020119012901390149003A80290AFF276
:1042C000EC30AFF20843B7A23821009003A803F006
:1042D000BFFE03AABBA1A248FEF791FB11A80123D0
:1042E00002AA00210090142001F095F938B9129A21
:1042F00091B2119801F0CFFC11A800F0AFFD15B0FC
:1043000000BD2DE9F04F8DB0834600200C900B903E
:104310000A9009900890002582460790069058461A
:1043200000F0E4FD0546032D04D0042D72D0092DC4
:1043300071D18DE0A94808A909AA0CABCDE90021EB
:1043400002900AAA0BA9584601F09DFA8246BAF1DA
:10435000000F73D100200390BDF824000C99CDE923
:104360000010BDF828309EA17D480B9AFEF747FB50
:104370000C9802F013FC0590A8A1059803F014F81E
:104380000490A8A1049803F00FF80646A6A104988B
:1043900003F00AF80746A6A1049803F005F8804642
:1043A000A5A1049803F000F88146A6A1049802F0A4
:1043B000FBFF044676B10120A54908706420A54999
:1043C0000860F068012802D1FEF750FB02E00020EF
:1043D000FEF74CFB77B101209F49087064209F498C
:1043E0000860F868012802D14D49087002E00020F9
:1043F0004B490870B8F1000F11D00120984908709E
:10440000642098490860D8F80C00012804D13D497F
:10441000087004E013E029E000203A490870B9F17F
:10442000000F03D099F814008F49087014B1207D53
:104430001A490870059801F0AFFD00BF00BF58464B
:1044400001F021FB18B989A14548FEF7D8FA10E020
:10445000584601F05FF920B98CA14148FEF7CFFA28
:1044600003E092A13E48FEF7CAFA02E04FF0FF3A9D
:1044700000BF00BF01F0CAFB0AF1010010B90DB086
:10448000BDE8F08F0F2D01D0032D05D10B9803F05F
:104490007AFD0C9803F077FD00BFF0E75300002091
:1044A0002268756D695F76616C7565223A7B22764C
:1044B000616C7565223A25647D2C00005400002053
:1044C00022536F696C5F76616C7565223A7B227648
:1044D000616C7565223A25647D2C00002C0000205B
:1044E000747275650000000066616C736500000001
:1044F000224C6564223A7B2276616C7565223A25EE
:10450000737D2C005B000020224D4F534645542202
:104510003A7B2276616C7565223A25737D2C00000A
:104520005A000020224D6F746F72223A7B2276610E
:104530006C7565223A25737D000000007D7D0000CA
:104540004A534F4E204C656E6774683A2025642CA0
:1045500020436F6E74656E743A2025730D0A000057
:10456000003801405741524E3A2020202045445007
:104570005F4E6577427566666572204661696C6557
:10458000640D0A005075626C69736820546F70691D
:10459000633A2025732C204D73673A2025730D0A4A
:1045A00000000000247379732F25732F25732F7457
:1045B00068696E672F70726F70657274792F73659A
:1045C0007400000053756273637269626520546FF2
:1045D0007069633A2025730D0A000000680000200E
:1045E000746F7069633A2025732C20746F7069634F
:1045F0005F6C656E3A2025642C207061796C6F6168
:10460000643A2025732C207061796C6F61645F6C53
:10461000656E3A2025640D0A000000007061726129
:104620006D7300004C6564004D6F746F7200000084
:104630004D4F53464554000074656D705F76616C54
:104640007565000068756D695F76616C7565000061
:1046500040000020440000204100002048000020CD
:10466000420000204C00002052000020546970736A
:104670003A202020204D515454205075626C6973AB
:10468000682053656E64204F4B0D0A0054697073A7
:104690003A202020204D5154542053756273637288
:1046A000696265204F4B0D0A000000005469707369
:1046B0003A202020204D5154542053756273637268
:1046C000696265204572720D0A000000F0B504466B
:1046D000142C06DA01EA020523EA010685EA06003F
:1046E00019E0282C04DA81EA020787EA030012E0C5
:1046F0003C2C0ADA01EA020501EA030787EA05060B
:1047000002EA030787EA060005E0502C03DA81EA93
:10471000020787EA0300F0BD0146142901DAF748D1
:104720000AE0282901DAF64806E03C2901DAF548D2
:1047300002E0502900DAF4487047F0B50246012043
:104740009040441EE54301EA050020FA02F601EA22
:104750000400C2F1200C00FA0CF746EA07031846E1
:10476000F0BDF0B50246C2F1200C012000FA0CF0B9
:10477000441EE54301EA040000FA02F601EA0500DE
:10478000C2F1200C20FA0CF746EA07031846F0BDE8
:104790002DE9F04FDDB007468A4615460AF10809B3
:1047A00009F101094FEACA005B9048464FEAE971F6
:1047B00009EB91618E1148464FEAE97109EB91616D
:1047C0008911A9EB81115C915C98002800DD761CB1
:1047D0005C98C0F140008144D04604E0002007F816
:1047E000080008F10108B8EB861FF7DB802007F806
:1047F0000A000121C1EB86115B9878545B98C0F3E5
:1048000007200221C1EB861178545B98C0F3074062
:104810000321C1EB861178545B98000E0421C1EB93
:1048200086117854B9485690B9485790B748C04354
:104830005890B748C0435990B6485A904FF0000876
:10484000A5E0002452E0102C32D24FEA881000EB91
:104850008400385C000601A941F824004FEA881062
:1048600000EB8400401C385C51F824104FF4803277
:1048700002FB001001A941F824004FEA881000EB68
:104880008400801C385C51F82410121202FB0010C6
:1048900001A941F824004FEA881000EB8400C01CF5
:1048A000385C51F82410084401A941F824001CE0A8
:1048B000502C1AD2E01E01AA52F82000A4F10802DE
:1048C00001AB53F822205040A4F10E0253F82220ED
:1048D0005040A4F1100253F8222080EA0201012086
:1048E000FFF73FFF01A941F82400641C502CAAD314
:1048F000569855905798549058985390599852906C
:104900005A98519000242AE005205599FFF729FF75
:1049100083462046529B539A5499FFF7D7FE58443A
:10492000009051990098084400902046FFF7F4FE4B
:1049300000990844009001A850F8241000980844F9
:10494000009052985190539852901E205499FFF71E
:1049500008FF53905598549000985590641C502C23
:10496000D2D356995598084456905799549808446C
:104970005790589953980844589059995298084418
:1049800059905A99519808445A9008F10108B04535
:10499000FFF657AF5698E8705698000AA8705698D8
:1049A000000C68705698000E28705798E871579858
:1049B000000AA8715798000C68715798000E28716A
:1049C0005898E8725898000AA8725898000C6872B3
:1049D0005898000E28725998E8735998000AA873DD
:1049E0005998000C68735998000E28735A98E87407
:1049F0005A98000AA8745A98000C68745A98000EC5
:104A000028745DB0BDE8F08F2DE9F04FADF5B36DC2
:104A100007460E4692469846DDF8BC9540254FF075
:104A2000360B5C20CDF89405002404E000200DF244
:104A300054510855641C402CF8DBAE421DD0AE42E8
:104A40000FDD4A4631463846FFF7A2FE002405E056
:104A500019F804000DF254510855641C142CF7DBAE
:104A600014E0AE4212DA002404E0385D0DF2545135
:104A70000855641CB442F8DB08E0002404E0385D0B
:104A80000DF254510855641CAC42F8DB002408E0D8
:104A90000DF25450005D80EA0B000DF214510855E0
:104AA000641C402CF4DB002405E00DF21450005D82
:104AB00015A90855641C402CF7DB002406E01AF801
:104AC000041015AA04F140001154641C4445F6DB9F
:104AD00008EB05014A4615A8FFF75AFE002409E035
:104AE0000DF25450005DDDF8941548400DF2D441AC
:104AF0000855641C402CF3DB002413E09979825A9A
:104B0000A1EBD96EDCBC1B8FD6C162CA01234567FD
:104B100089ABCDEFF0E1D2C30DF2D440005D0DF8CA
:104B20000400641C402CF7DB002406E019F8041094
:104B300004F140000DF80010641C142CF6DB4A460A
:104B400005F114016846FFF723FE0DF5B36DBDE8CE
:104B5000F08F00002DE9F04F07468946099C00259B
:104B60000026AC46A846AA4600211CB900201060C9
:104B7000BDE8F08F0320B4FBF0F04FF0030BB4FB63
:104B8000FBFE0BFB1E4BBBF1000F02D04FF0010BE5
:104B900001E04FF0000B00EB0B06B6F1804F05D3A0
:104BA0004FF0FF3010606FF02900E1E7B600701C95
:104BB000814500D327B9701C10606FF02900D7E73A
:104BC0000320B4FBF0F000EB40060025394629E055
:104BD00013F801CB13F8018B13F801AB87484FEAA8
:104BE0009C0B10F80B0001F8010B4FEA0C1000EBC6
:104BF000281000F03F00DFF804B21BF8000001F8B5
:104C0000010B4FEA880000EBAA1000F03F001BF8F0
:104C1000000001F8010B0AF03F001BF8000001F84A
:104C2000010BED1CB542D3D3A5422DD213F801CB15
:104C3000681CA04202D213F8010B00E0002080465D
:104C40006E48CCF3850B10F80B0001F8010B4FEA0E
:104C50000C1000EB281000F03F00DFF8A0B11BF8AB
:104C6000000001F8010B681CA04207D23F2000EAB7
:104C700088001BF8000001F8010B02E03D2001F85C
:104C8000010B3D2001F8010BC81B106000200870CB
:104C900000BF6DE72DE9F047074689469046DDF8ED
:104CA00020C0002100220024002600250020044608
:104CB0000246014645E0002601E0491C761C61459C
:104CC00002D2585C2028F8D0614500D13BE0ACEB23
:104CD0000100022807D3585C0D2804D1481C185C39
:104CE0000A2800D12CE0585C0A2800D128E01EB127
:104CF0006FF02B00BDE8F087585C3D2806D1601CA2
:104D00000446022802D96FF02B00F3E7585C7F2895
:104D100006DC585CDFF8E8A01AF800007F2802D112
:104D20006FF02B00E6E7585CDFF8D4A01AF800001B
:104D3000402803DA14B16FF02B00DBE7521C00BFF0
:104D4000491C6145B7D300BF1AB90020C8F800005C
:104D5000D0E7D00800EB40004FEA400A02F007001D
:104D600000EB40004000C01D0AEBD002121B0FB147
:104D7000914504D2C8F800206FF02900BAE7032457
:104D80000020064602463D4631E018780D2805D041
:104D900018780A2802D01878202800D125E0187841
:104DA000DFF85CA01AF80000402801D1012000E0E3
:104DB0000020241A1878DFF848A01AF8000066F3DB
:104DC0009F100646501C024604280DD1002214B143
:104DD000300C05F8010B012C02D9300A05F8010B43
:104DE000022C01D905F8016B00BF491E5B1C00298C
:104DF000CBD1E81BC8F8000000207BE7B6BB000859
:104E0000F6BB000870B504460E460025206898B928
:104E100001202073304603F087F820602068E0B15D
:104E200000206060A66003E00020216848556D1CEA
:104E3000A068A842F8D810E00220207303E0002008
:104E4000216848556D1CA068A842F8D80020606011
:104E5000A068B04201D20020206070BD10B50446A9
:104E6000207B012802D1206803F08DF8002020600B
:104E70006060A060207310BD0246002301230DE096
:104E800002F07F000870D2092AB1087840F0800053
:104E90000870491C01E0184670475B1C042BEFDDCD
:104EA0004FF0FF30F8E7F0B504460D4626460123E3
:104EB00000201060002114E0775C07F07F07106885
:104EC00007FB03001060705C00F0800008B9481C0C
:104ED000F0BDDB01B3F5001F02D36FF00100F7E76F
:104EE000491CA942E8DB4FF0FF30F1E7F8B5044672
:104EF000FF2720780511012D01DB0E2D01DD38463D
:104F0000F8BD032D24D1002000906A460421601CC6
:104F1000FFF7C9FF2044461C0098022803D32078DD
:104F200000F0010008B1FF20EAE77078317840EA2C
:104F30000120801C0099884201D9FF20E0E7F8A1F8
:104F4000B01C03F08BFB08B10F2700E0032700E043
:104F50002F463846D4E72DE9FF4F83B082468B4673
:104F60009146159C0025002002900F27019048468D
:104F700003F0AAFB0FFA80F8B9F1000F03D101206A
:104F800007B0BDE8F08F08F10200384487B21098EE
:104F900008B145F00205129878B145F00405129861
:104FA00003F092FBC0B20290139803F08DFB014610
:104FB0000298001D0844384487B2119820B1012896
:104FC00004D0022808D104E000BF07E045F00C053A
:104FD00004E045F0140501E00220D1E700BF149879
:104FE00008B145F02405BAF1000F02D0BBF1000F63
:104FF00001D10320C4E745F0C005504603F064FB2F
:105000000646584603F060FB3044001D384487B222
:1050100039462046FFF7F6FE206808B90420AFE7BE
:105020003946206803F03DFC10216268501C606026
:1050300020688154D4E90023D118781FFFF71CFFA2
:1050400000B201900198002804DA2046FFF706FF1D
:10505000052095E761680198084460600021626856
:10506000501C60602068815404216268501C60609C
:10507000206881544D216268501C60602068815412
:1050800051216268501C606020688154542162681C
:10509000501C6060206881546268501C6060206809
:1050A000815404216268501C6060206881546168EA
:1050B000481C6060206845540698010A6268501CCC
:1050C0006060206881540698C1B26268501C6060BC
:1050D00020688154C8F307216268501C6060206812
:1050E00081546268501C6060206800F80280D4E936
:1050F000001288184246494603F09EFA6068404410
:10510000606005F00400B8B30026139808B986A0C3
:105110001390129803F0D8FA86B2310A6268501CD4
:105120006060206881546268501C6060206886540A
:10513000D4E9001288183246129903F07DFA6068AB
:1051400030446060139803F0BFFA86B2310A626897
:10515000501C6060206881546268501C6060206848
:105160008654D4E9001288183246139903F064FA81
:1051700060683044606000BF05F08000C8B15046F0
:1051800003F0A2FA86B2310A6268501C606020689F
:1051900081546268501C606020688654D4E9001213
:1051A00088183246514603F047FA60683044606020
:1051B00000BF05F04000C8B1584603F085FA86B23A
:1051C000310A6268501C6060206881546268501C1B
:1051D000606020688654D4E9001288183246594627
:1051E00003F02AFA60683044606000BF0020C7E620
:1051F00010B5044602212046FFF704FE206808B9D6
:10520000012010BDE0216268501C6060206881545C
:1052100000216268501C6060206881540020F0E723
:1052200001464878022801D001207047887810B1E3
:105230008878012801D1C878F7E7FF20F5E72DE944
:10524000FF4F83B0834617469946139C00250026DE
:105250000020029001908046BBF1000F03D1012095
:1052600007B0BDE8F08F00260AE00498805D23288F
:1052700003D00498805D2B2801D10220F0E7761C32
:105280000498805D0028F0D148F03008119808B1EA
:1052900048F0010806EB0900851C109820B1012890
:1052A00004D002280AD105E000BF09E048F0020856
:1052B000AD1C05E048F00408AD1C01E00320CFE779
:1052C00000BF67B33878022821D14FF0000A00BF31
:1052D00050460AF1010A385C7D28F9D1AAF1030A87
:1052E0000AF1070002900298A9EB000AE81CA0EB63
:1052F0000A012046FFF786FD206808B90420AFE7C1
:10530000EA1CA2EB0A01206803F0CBFA1FE0691D3A
:105310002046FFF777FD206840B90420A0E70AE0A7
:10532000246372657100000000000000691D2068A0
:1053300003F0B7FA0BE0691D2046FFF763FD206814
:1053400008B904208CE7691D206803F0AAFA616897
:10535000481C6060206800F80180D4E900028118D0
:105360002846FFF789FD01900198002804DA2046BD
:10537000FFF774FD052073E76168019808446060D9
:10538000C6F307216268501C60602068815462681F
:10539000501C606020688654D4E900128818324698
:1053A000049903F049F9606830446060109860B176
:1053B0004FEA1B216268501C60602068815462685B
:1053C000501C6060206800F802B0C7B1387802282D
:1053D0000BD1D4E9001288183946029A03F0EAF991
:1053E000616802980844606009E0D4E900128818F6
:1053F0004A46394603F0DEF96068484460600020A0
:105400002EE72DE9F04190B004460D461646984629
:10541000169F2346F7A2302104A8009502F018FE3B
:1054200001200021CDE9000133460A4604A9CDE957
:1054300002070A20FFF703FF18B1012010B0BDE8F2
:10544000F0810020FAE72DE9F04F85B080460D4647
:105450009146012004900027002600244FF0000A06
:10546000404603F031F900F10D0B584602F05CFDA7
:1054700007461FB9049805B0BDE8F08F4246E5A184
:10548000384602F0CFFD384603F01EF9C6B2F01DD3
:1054900000EB050AAAEB050002F046FD044624B91C
:1054A000384602F070FD0498E5E7022020700020E5
:1054B0006070A67032463946E01C03F07BF9290E75
:1054C000F01C2154C5F30741301D2154C5F30721B9
:1054D000701D2154B01D255401200021CDE900018B
:1054E00053462246CFA1CDE902090A20FFF7A7FEC5
:1054F00008B900200490384602F045FD204602F02D
:1055000042FD0498B7E72DE9F84380460C4615465E
:105510001E462F2108F1060003F084F807460020FC
:10552000009017B90120BDE8F8837F1C6A4604216A
:1055300008F10100FFF7B7FC252002F0F5FC206020
:10554000206808B90220EEE72521206803F0A9F9B8
:1055500024223946206803F02DF9243700982C388E
:1055600030803188481C02F0DFFC2860286820B9B0
:10557000206802F008FD0320D5E73288511C286816
:1055800003F08FF932883946286803F013F90020B8
:10559000C9E72DE9FF5F07460D469046384603F000
:1055A00093F886B2284603F08FF81FFA80FA4FF07E
:1055B0000009F01D02F0B8FC04461CB9012004B03B
:1055C000BDE8F09FF11D204603F06BF996A001683D
:1055D00021608088A08032463946204603F02CF8AE
:1055E000284603F071F883460120002100915B46B4
:1055F0002A46CDE90208019121460A20FFF71FFE45
:1056000010B94FF0000901E04FF00109204602F007
:10561000BAFC4846D3E72DE9FF5F80461746994616
:105620000E9C0026B246B3460025B8F1000F03D108
:10563000012004B0BDE8F09F0BE057F8250008B941
:105640000220F6E757F8250003F03EF80644681CF0
:10565000C5B24D45F1DB09EB4900801C00EB060AA1
:105660000AF105012046FFF7CDFB206808B90320A9
:10567000DFE782216268501C606020688154D4E9B1
:10568000000281185046FFF7F7FB0FFA80FBBBF1D1
:10569000000F04DA2046FFF7E1FB0420C9E7606849
:1056A000584460604FEA18216268501C60602068AE
:1056B00081546268501C6060206800F802800025F8
:1056C00024E057F8250002F0FFFF0646C6F3072145
:1056D0006268501C6060206881546268501C606081
:1056E00020688654D4E90023D01857F82510324694
:1056F00002F0A2FF6068304460600198C1B2626845
:10570000501C606020688154681CC5B24D45D8DBD0
:1057100000208EE70146FF208A78A2B9CA78142AB1
:1057200011D10A7932B1012A05D0022A04D0802A87
:1057300006D103E000BF00BF002003E0012001E02C
:10574000022000BF00BF70472DE9F05F80460F4682
:1057500091461C460026B246B3460025B8F1000F1C
:1057600002D10120BDE8F09F0BE057F8250008B9F1
:105770000220F7E757F8250002F0A6FF0644681C50
:10578000C5B24D45F1DB022000EB490000EB060AF3
:105790000AF105012046FFF735FB206808B9032010
:1057A000E0E7A2216268501C606020688154D4E95F
:1057B000000281185046FFF75FFB0FFA80FBBBF138
:1057C000000F04DA2046FFF749FB0420CAE76068AF
:1057D000584460604FEA18216268501C606020687D
:1057E00081546268501C6060206800F802800025C7
:1057F0003CE00000247379732F25732F25732F74D9
:1058000068696E672F70726F70657274792F706F30
:10581000737400007B2264735F6964223A222573EB
:10582000227D00002464700024637273702F0000D6
:1058300057F8250002F048FF0646C6F307216268C4
:10584000501C6060206881546268501C6060206851
:105850008654D4E90023D01857F82510324602F0B8
:10586000EBFE606830446060681CC5B24D45DFDB0C
:10587000002077E7014601208A781AB9CA781E2AE3
:1058800000D1002070472DE9FC5F81460D4614468B
:105890001E46DDE90C8B99F8000000F00F0A00208D
:1058A00001900AF008000090CAF341008BF8000054
:1058B00001AA042109F10100FFF7F5FA4844471C49
:1058C0000198022802D30AF0010010B1FF20BDE8C0
:1058D000FC9F7878397840EA012020802088801C5D
:1058E0000199884201D9FF20F1E7AFF2CC51B81CF1
:1058F00002F0B4FE08B10F20E9E79BF8000020B1E8
:1059000001283DD0022877D13BE0009808B1FF2064
:10591000DDE72188481C02F007FB2860286808B9E9
:10592000FF20D4E72288511C286802F0BAFF2288A1
:10593000B91C286802F03EFF0198801E2188401A99
:10594000A8F80000B8F80010481C02F0EDFA30602A
:10595000306820B9286802F016FBFF20B7E7B8F8D6
:105960000020511C306802F09CFFB8F80020B4F809
:1059700000C0BB1C0CEB0301306802F01BFF4FE0C2
:1059800000BF2088801C0199884201D9FF209EE732
:105990002088C01C395C2088801C385C41EA0021CA
:1059A0000E9801800E9808B9FF2090E72188481CC6
:1059B00002F0BAFA2860286808B9FF2087E7228831
:1059C000511C286802F06DFF2288B91C286802F07B
:1059D000F1FE0198001F2188401AA8F80000B8F8CD
:1059E0000010481C02F0A0FA3060306828B928681E
:1059F00002F0C9FAFF206AE710E0B8F80020511C55
:105A0000306802F04EFFB8F80020B4F800C03B1D2B
:105A10000CEB0301306802F0CDFE01E0FF2056E7F9
:105A200000BF2B21284602F0FDFD20B92321284686
:105A300002F0F8FD08B1FF2049E7002047E770B504
:105A400005460C4604212046FFF7DCF9206808B91A
:105A5000012070BD40216268501C60602068815444
:105A600002216268501C60602068815429126268BB
:105A7000501C6060206881546268501C606020681F
:105A800085540020E5E701464878022801D001202E
:105A90007047887820B9C8780A2801D10020F7E734
:105AA0000120F5E770B505460C4604212046FFF7B6
:105AB000A9F9206808B9012070BD50216268501C06
:105AC00060602068815402216268501C6060206818
:105AD000815429126268501C606020688154626899
